{
  "_format": "hh-sol-artifact-1",
  "contractName": "Punks",
  "sourceName": "contracts/Punks.sol",
  "abi": [
    {
      "inputs": [
        {
          "internalType": "string",
          "name": "baseURI",
          "type": "string"
        }
      ],
      "stateMutability": "nonpayable",
      "type": "constructor"
    },
    {
      "anonymous": false,
      "inputs": [
        {
          "indexed": true,
          "internalType": "address",
          "name": "owner",
          "type": "address"
        },
        {
          "indexed": true,
          "internalType": "address",
          "name": "approved",
          "type": "address"
        },
        {
          "indexed": true,
          "internalType": "uint256",
          "name": "tokenId",
          "type": "uint256"
        }
      ],
      "name": "Approval",
      "type": "event"
    },
    {
      "anonymous": false,
      "inputs": [
        {
          "indexed": true,
          "internalType": "address",
          "name": "owner",
          "type": "address"
        },
        {
          "indexed": true,
          "internalType": "address",
          "name": "operator",
          "type": "address"
        },
        {
          "indexed": false,
          "internalType": "bool",
          "name": "approved",
          "type": "bool"
        }
      ],
      "name": "ApprovalForAll",
      "type": "event"
    },
    {
      "anonymous": false,
      "inputs": [
        {
          "indexed": true,
          "internalType": "address",
          "name": "previousOwner",
          "type": "address"
        },
        {
          "indexed": true,
          "internalType": "address",
          "name": "newOwner",
          "type": "address"
        }
      ],
      "name": "OwnershipTransferred",
      "type": "event"
    },
    {
      "anonymous": false,
      "inputs": [
        {
          "indexed": true,
          "internalType": "address",
          "name": "from",
          "type": "address"
        },
        {
          "indexed": true,
          "internalType": "address",
          "name": "to",
          "type": "address"
        },
        {
          "indexed": true,
          "internalType": "uint256",
          "name": "tokenId",
          "type": "uint256"
        }
      ],
      "name": "Transfer",
      "type": "event"
    },
    {
      "stateMutability": "payable",
      "type": "fallback"
    },
    {
      "inputs": [],
      "name": "_paused",
      "outputs": [
        {
          "internalType": "bool",
          "name": "",
          "type": "bool"
        }
      ],
      "stateMutability": "view",
      "type": "function"
    },
    {
      "inputs": [],
      "name": "_price",
      "outputs": [
        {
          "internalType": "uint256",
          "name": "",
          "type": "uint256"
        }
      ],
      "stateMutability": "view",
      "type": "function"
    },
    {
      "inputs": [
        {
          "internalType": "address",
          "name": "to",
          "type": "address"
        },
        {
          "internalType": "uint256",
          "name": "tokenId",
          "type": "uint256"
        }
      ],
      "name": "approve",
      "outputs": [],
      "stateMutability": "nonpayable",
      "type": "function"
    },
    {
      "inputs": [
        {
          "internalType": "address",
          "name": "owner",
          "type": "address"
        }
      ],
      "name": "balanceOf",
      "outputs": [
        {
          "internalType": "uint256",
          "name": "",
          "type": "uint256"
        }
      ],
      "stateMutability": "view",
      "type": "function"
    },
    {
      "inputs": [
        {
          "internalType": "uint256",
          "name": "tokenId",
          "type": "uint256"
        }
      ],
      "name": "getApproved",
      "outputs": [
        {
          "internalType": "address",
          "name": "",
          "type": "address"
        }
      ],
      "stateMutability": "view",
      "type": "function"
    },
    {
      "inputs": [
        {
          "internalType": "address",
          "name": "owner",
          "type": "address"
        },
        {
          "internalType": "address",
          "name": "operator",
          "type": "address"
        }
      ],
      "name": "isApprovedForAll",
      "outputs": [
        {
          "internalType": "bool",
          "name": "",
          "type": "bool"
        }
      ],
      "stateMutability": "view",
      "type": "function"
    },
    {
      "inputs": [],
      "name": "maxtokenIds",
      "outputs": [
        {
          "internalType": "uint256",
          "name": "",
          "type": "uint256"
        }
      ],
      "stateMutability": "view",
      "type": "function"
    },
    {
      "inputs": [],
      "name": "mint",
      "outputs": [],
      "stateMutability": "payable",
      "type": "function"
    },
    {
      "inputs": [],
      "name": "name",
      "outputs": [
        {
          "internalType": "string",
          "name": "",
          "type": "string"
        }
      ],
      "stateMutability": "view",
      "type": "function"
    },
    {
      "inputs": [],
      "name": "owner",
      "outputs": [
        {
          "internalType": "address",
          "name": "",
          "type": "address"
        }
      ],
      "stateMutability": "view",
      "type": "function"
    },
    {
      "inputs": [
        {
          "internalType": "uint256",
          "name": "tokenId",
          "type": "uint256"
        }
      ],
      "name": "ownerOf",
      "outputs": [
        {
          "internalType": "address",
          "name": "",
          "type": "address"
        }
      ],
      "stateMutability": "view",
      "type": "function"
    },
    {
      "inputs": [],
      "name": "renounceOwnership",
      "outputs": [],
      "stateMutability": "nonpayable",
      "type": "function"
    },
    {
      "inputs": [
        {
          "internalType": "address",
          "name": "from",
          "type": "address"
        },
        {
          "internalType": "address",
          "name": "to",
          "type": "address"
        },
        {
          "internalType": "uint256",
          "name": "tokenId",
          "type": "uint256"
        }
      ],
      "name": "safeTransferFrom",
      "outputs": [],
      "stateMutability": "nonpayable",
      "type": "function"
    },
    {
      "inputs": [
        {
          "internalType": "address",
          "name": "from",
          "type": "address"
        },
        {
          "internalType": "address",
          "name": "to",
          "type": "address"
        },
        {
          "internalType": "uint256",
          "name": "tokenId",
          "type": "uint256"
        },
        {
          "internalType": "bytes",
          "name": "_data",
          "type": "bytes"
        }
      ],
      "name": "safeTransferFrom",
      "outputs": [],
      "stateMutability": "nonpayable",
      "type": "function"
    },
    {
      "inputs": [
        {
          "internalType": "address",
          "name": "operator",
          "type": "address"
        },
        {
          "internalType": "bool",
          "name": "approved",
          "type": "bool"
        }
      ],
      "name": "setApprovalForAll",
      "outputs": [],
      "stateMutability": "nonpayable",
      "type": "function"
    },
    {
      "inputs": [
        {
          "internalType": "bool",
          "name": "val",
          "type": "bool"
        }
      ],
      "name": "setPaused",
      "outputs": [],
      "stateMutability": "nonpayable",
      "type": "function"
    },
    {
      "inputs": [
        {
          "internalType": "bytes4",
          "name": "interfaceId",
          "type": "bytes4"
        }
      ],
      "name": "supportsInterface",
      "outputs": [
        {
          "internalType": "bool",
          "name": "",
          "type": "bool"
        }
      ],
      "stateMutability": "view",
      "type": "function"
    },
    {
      "inputs": [],
      "name": "symbol",
      "outputs": [
        {
          "internalType": "string",
          "name": "",
          "type": "string"
        }
      ],
      "stateMutability": "view",
      "type": "function"
    },
    {
      "inputs": [
        {
          "internalType": "uint256",
          "name": "index",
          "type": "uint256"
        }
      ],
      "name": "tokenByIndex",
      "outputs": [
        {
          "internalType": "uint256",
          "name": "",
          "type": "uint256"
        }
      ],
      "stateMutability": "view",
      "type": "function"
    },
    {
      "inputs": [],
      "name": "tokenIds",
      "outputs": [
        {
          "internalType": "uint256",
          "name": "",
          "type": "uint256"
        }
      ],
      "stateMutability": "view",
      "type": "function"
    },
    {
      "inputs": [
        {
          "internalType": "address",
          "name": "owner",
          "type": "address"
        },
        {
          "internalType": "uint256",
          "name": "index",
          "type": "uint256"
        }
      ],
      "name": "tokenOfOwnerByIndex",
      "outputs": [
        {
          "internalType": "uint256",
          "name": "",
          "type": "uint256"
        }
      ],
      "stateMutability": "view",
      "type": "function"
    },
    {
      "inputs": [
        {
          "internalType": "uint256",
          "name": "tokenId",
          "type": "uint256"
        }
      ],
      "name": "tokenURI",
      "outputs": [
        {
          "internalType": "string",
          "name": "",
          "type": "string"
        }
      ],
      "stateMutability": "view",
      "type": "function"
    },
    {
      "inputs": [],
      "name": "totalSupply",
      "outputs": [
        {
          "internalType": "uint256",
          "name": "",
          "type": "uint256"
        }
      ],
      "stateMutability": "view",
      "type": "function"
    },
    {
      "inputs": [
        {
          "internalType": "address",
          "name": "from",
          "type": "address"
        },
        {
          "internalType": "address",
          "name": "to",
          "type": "address"
        },
        {
          "internalType": "uint256",
          "name": "tokenId",
          "type": "uint256"
        }
      ],
      "name": "transferFrom",
      "outputs": [],
      "stateMutability": "nonpayable",
      "type": "function"
    },
    {
      "inputs": [
        {
          "internalType": "address",
          "name": "newOwner",
          "type": "address"
        }
      ],
      "name": "transferOwnership",
      "outputs": [],
      "stateMutability": "nonpayable",
      "type": "function"
    },
    {
      "inputs": [],
      "name": "withdraw",
      "outputs": [],
      "stateMutability": "nonpayable",
      "type": "function"
    },
    {
      "stateMutability": "payable",
      "type": "receive"
    }
  ],
  "bytecode": "0x6080604052662386f26fc10000600c55600a600e553480156200002157600080fd5b506040516200405438038062004054833981810160405281019062000047919062000317565b6040518060400160405280600581526020017f50756e6b730000000000000000000000000000000000000000000000000000008152506040518060400160405280600781526020017f595050756e6b73000000000000000000000000000000000000000000000000008152508160009080519060200190620000cb929190620001f5565b508060019080519060200190620000e4929190620001f5565b50505062000107620000fb6200012760201b60201c565b6200012f60201b60201c565b80600b90805190602001906200011f929190620001f5565b5050620004cc565b600033905090565b6000600a60009054906101000a900473ffffffffffffffffffffffffffffffffffffffff16905081600a60006101000a81548173ffffffffffffffffffffffffffffffffffffffff021916908373ffffffffffffffffffffffffffffffffffffffff1602179055508173ffffffffffffffffffffffffffffffffffffffff168173ffffffffffffffffffffffffffffffffffffffff167f8be0079c531659141344cd1fd0a4f28419497f9722a3daafe3b4186f6b6457e060405160405180910390a35050565b8280546200020390620003f1565b90600052602060002090601f01602090048101928262000227576000855562000273565b82601f106200024257805160ff191683800117855562000273565b8280016001018555821562000273579182015b828111156200027257825182559160200191906001019062000255565b5b50905062000282919062000286565b5090565b5b80821115620002a157600081600090555060010162000287565b5090565b6000620002bc620002b68462000385565b6200035c565b905082815260208101848484011115620002d557600080fd5b620002e2848285620003bb565b509392505050565b600082601f830112620002fc57600080fd5b81516200030e848260208601620002a5565b91505092915050565b6000602082840312156200032a57600080fd5b600082015167ffffffffffffffff8111156200034557600080fd5b6200035384828501620002ea565b91505092915050565b6000620003686200037b565b905062000376828262000427565b919050565b6000604051905090565b600067ffffffffffffffff821115620003a357620003a26200048c565b5b620003ae82620004bb565b9050602081019050919050565b60005b83811015620003db578082015181840152602081019050620003be565b83811115620003eb576000848401525b50505050565b600060028204905060018216806200040a57607f821691505b602082108114156200042157620004206200045d565b5b50919050565b6200043282620004bb565b810181811067ffffffffffffffff821117156200045457620004536200048c565b5b80604052505050565b7f4e487b7100000000000000000000000000000000000000000000000000000000600052602260045260246000fd5b7f4e487b7100000000000000000000000000000000000000000000000000000000600052604160045260246000fd5b6000601f19601f8301169050919050565b613b7880620004dc6000396000f3fe6080604052600436106101855760003560e01c806342842e0e116100d15780638da5cb5b1161008a578063b88d4fde11610064578063b88d4fde14610559578063c87b56dd14610582578063e985e9c5146105bf578063f2fde38b146105fc5761018c565b80638da5cb5b146104da57806395d89b4114610505578063a22cb465146105305761018c565b806342842e0e146103b85780634f6ccce7146103e15780636352211e1461041e57806370a082311461045b578063714cff5614610498578063715018a6146104c35761018c565b806316c38b3c1161013e578063235b6ea111610118578063235b6ea11461031057806323b872dd1461033b5780632f745c59146103645780633ccfd60b146103a15761018c565b806316c38b3c1461029157806316c61ccc146102ba57806318160ddd146102e55761018c565b806301ffc9a71461018e57806306fdde03146101cb578063081812fc146101f6578063095ea7b31461023357806309eeff181461025c5780631249c58b146102875761018c565b3661018c57005b005b34801561019a57600080fd5b506101b560048036038101906101b091906128bf565b610625565b6040516101c29190612dfd565b60405180910390f35b3480156101d757600080fd5b506101e061069f565b6040516101ed9190612e18565b60405180910390f35b34801561020257600080fd5b5061021d60048036038101906102189190612911565b610731565b60405161022a9190612d96565b60405180910390f35b34801561023f57600080fd5b5061025a6004803603810190610255919061285a565b6107b6565b005b34801561026857600080fd5b506102716108ce565b60405161027e91906130fa565b60405180910390f35b61028f6108d4565b005b34801561029d57600080fd5b506102b860048036038101906102b39190612896565b6109d7565b005b3480156102c657600080fd5b506102cf610a70565b6040516102dc9190612dfd565b60405180910390f35b3480156102f157600080fd5b506102fa610a83565b60405161030791906130fa565b60405180910390f35b34801561031c57600080fd5b50610325610a90565b60405161033291906130fa565b60405180910390f35b34801561034757600080fd5b50610362600480360381019061035d9190612754565b610a96565b005b34801561037057600080fd5b5061038b6004803603810190610386919061285a565b610af6565b60405161039891906130fa565b60405180910390f35b3480156103ad57600080fd5b506103b6610b9b565b005b3480156103c457600080fd5b506103df60048036038101906103da9190612754565b610cd9565b005b3480156103ed57600080fd5b5061040860048036038101906104039190612911565b610cf9565b60405161041591906130fa565b60405180910390f35b34801561042a57600080fd5b5061044560048036038101906104409190612911565b610d90565b6040516104529190612d96565b60405180910390f35b34801561046757600080fd5b50610482600480360381019061047d91906126ef565b610e42565b60405161048f91906130fa565b60405180910390f35b3480156104a457600080fd5b506104ad610efa565b6040516104ba91906130fa565b60405180910390f35b3480156104cf57600080fd5b506104d8610f00565b005b3480156104e657600080fd5b506104ef610f88565b6040516104fc9190612d96565b60405180910390f35b34801561051157600080fd5b5061051a610fb2565b6040516105279190612e18565b60405180910390f35b34801561053c57600080fd5b506105576004803603810190610552919061281e565b611044565b005b34801561056557600080fd5b50610580600480360381019061057b91906127a3565b61105a565b005b34801561058e57600080fd5b506105a960048036038101906105a49190612911565b6110bc565b6040516105b69190612e18565b60405180910390f35b3480156105cb57600080fd5b506105e660048036038101906105e19190612718565b611163565b6040516105f39190612dfd565b60405180910390f35b34801561060857600080fd5b50610623600480360381019061061e91906126ef565b6111f7565b005b60007f780e9d63000000000000000000000000000000000000000000000000000000007bffffffffffffffffffffffffffffffffffffffffffffffffffffffff1916827bffffffffffffffffffffffffffffffffffffffffffffffffffffffff191614806106985750610697826112ef565b5b9050919050565b6060600080546106ae9061332a565b80601f01602080910402602001604051908101604052809291908181526020018280546106da9061332a565b80156107275780601f106106fc57610100808354040283529160200191610727565b820191906000526020600020905b81548152906001019060200180831161070a57829003601f168201915b5050505050905090565b600061073c826113d1565b61077b576040517f08c379a00000000000000000000000000000000000000000000000000000000081526004016107729061301a565b60405180910390fd5b6004600083815260200190815260200160002060009054906101000a900473ffffffffffffffffffffffffffffffffffffffff169050919050565b60006107c182610d90565b90508073ffffffffffffffffffffffffffffffffffffffff168373ffffffffffffffffffffffffffffffffffffffff161415610832576040517f08c379a00000000000000000000000000000000000000000000000000000000081526004016108299061307a565b60405180910390fd5b8073ffffffffffffffffffffffffffffffffffffffff1661085161143d565b73ffffffffffffffffffffffffffffffffffffffff161480610880575061087f8161087a61143d565b611163565b5b6108bf576040517f08c379a00000000000000000000000000000000000000000000000000000000081526004016108b690612f7a565b60405180910390fd5b6108c98383611445565b505050565b600e5481565b600d60009054906101000a900460ff1615610924576040517f08c379a000000000000000000000000000000000000000000000000000000000815260040161091b90612eda565b60405180910390fd5b600e54600f541061096a576040517f08c379a000000000000000000000000000000000000000000000000000000000815260040161096190612fda565b60405180910390fd5b600c543410156109af576040517f08c379a00000000000000000000000000000000000000000000000000000000081526004016109a69061305a565b60405180910390fd5b6001600f60008282546109c291906131b9565b925050819055506109d533600f546114fe565b565b6109df61143d565b73ffffffffffffffffffffffffffffffffffffffff166109fd610f88565b73ffffffffffffffffffffffffffffffffffffffff1614610a53576040517f08c379a0000000000000000000000000000000000000000000000000000000008152600401610a4a9061303a565b60405180910390fd5b80600d60006101000a81548160ff02191690831515021790555050565b600d60009054906101000a900460ff1681565b6000600880549050905090565b600c5481565b610aa7610aa161143d565b8261151c565b610ae6576040517f08c379a0000000000000000000000000000000000000000000000000000000008152600401610add906130ba565b60405180910390fd5b610af18383836115fa565b505050565b6000610b0183610e42565b8210610b42576040517f08c379a0000000000000000000000000000000000000000000000000000000008152600401610b3990612e3a565b60405180910390fd5b600660008473ffffffffffffffffffffffffffffffffffffffff1673ffffffffffffffffffffffffffffffffffffffff168152602001908152602001600020600083815260200190815260200160002054905092915050565b610ba361143d565b73ffffffffffffffffffffffffffffffffffffffff16610bc1610f88565b73ffffffffffffffffffffffffffffffffffffffff1614610c17576040517f08c379a0000000000000000000000000000000000000000000000000000000008152600401610c0e9061303a565b60405180910390fd5b6000610c21610f88565b9050600047905060008273ffffffffffffffffffffffffffffffffffffffff1682604051610c4e90612d81565b60006040518083038185875af1925050503d8060008114610c8b576040519150601f19603f3d011682016040523d82523d6000602084013e610c90565b606091505b5050905080610cd4576040517f08c379a0000000000000000000000000000000000000000000000000000000008152600401610ccb90612efa565b60405180910390fd5b505050565b610cf48383836040518060200160405280600081525061105a565b505050565b6000610d03610a83565b8210610d44576040517f08c379a0000000000000000000000000000000000000000000000000000000008152600401610d3b906130da565b60405180910390fd5b60088281548110610d7e577f4e487b7100000000000000000000000000000000000000000000000000000000600052603260045260246000fd5b90600052602060002001549050919050565b6000806002600084815260200190815260200160002060009054906101000a900473ffffffffffffffffffffffffffffffffffffffff169050600073ffffffffffffffffffffffffffffffffffffffff168173ffffffffffffffffffffffffffffffffffffffff161415610e39576040517f08c379a0000000000000000000000000000000000000000000000000000000008152600401610e3090612fba565b60405180910390fd5b80915050919050565b60008073ffffffffffffffffffffffffffffffffffffffff168273ffffffffffffffffffffffffffffffffffffffff161415610eb3576040517f08c379a0000000000000000000000000000000000000000000000000000000008152600401610eaa90612f9a565b60405180910390fd5b600360008373ffffffffffffffffffffffffffffffffffffffff1673ffffffffffffffffffffffffffffffffffffffff168152602001908152602001600020549050919050565b600f5481565b610f0861143d565b73ffffffffffffffffffffffffffffffffffffffff16610f26610f88565b73ffffffffffffffffffffffffffffffffffffffff1614610f7c576040517f08c379a0000000000000000000000000000000000000000000000000000000008152600401610f739061303a565b60405180910390fd5b610f866000611861565b565b6000600a60009054906101000a900473ffffffffffffffffffffffffffffffffffffffff16905090565b606060018054610fc19061332a565b80601f0160208091040260200160405190810160405280929190818152602001828054610fed9061332a565b801561103a5780601f1061100f5761010080835404028352916020019161103a565b820191906000526020600020905b81548152906001019060200180831161101d57829003601f168201915b5050505050905090565b61105661104f61143d565b8383611927565b5050565b61106b61106561143d565b8361151c565b6110aa576040517f08c379a00000000000000000000000000000000000000000000000000000000081526004016110a1906130ba565b60405180910390fd5b6110b684848484611a94565b50505050565b60606110c7826113d1565b611106576040517f08c379a00000000000000000000000000000000000000000000000000000000081526004016110fd9061309a565b60405180910390fd5b6000611110611af0565b90506000815111611130576040518060200160405280600081525061115b565b8061113a84611b82565b60405160200161114b929190612d52565b6040516020818303038152906040525b915050919050565b6000600560008473ffffffffffffffffffffffffffffffffffffffff1673ffffffffffffffffffffffffffffffffffffffff16815260200190815260200160002060008373ffffffffffffffffffffffffffffffffffffffff1673ffffffffffffffffffffffffffffffffffffffff16815260200190815260200160002060009054906101000a900460ff16905092915050565b6111ff61143d565b73ffffffffffffffffffffffffffffffffffffffff1661121d610f88565b73ffffffffffffffffffffffffffffffffffffffff1614611273576040517f08c379a000000000000000000000000000000000000000000000000000000000815260040161126a9061303a565b60405180910390fd5b600073ffffffffffffffffffffffffffffffffffffffff168173ffffffffffffffffffffffffffffffffffffffff1614156112e3576040517f08c379a00000000000000000000000000000000000000000000000000000000081526004016112da90612e7a565b60405180910390fd5b6112ec81611861565b50565b60007f80ac58cd000000000000000000000000000000000000000000000000000000007bffffffffffffffffffffffffffffffffffffffffffffffffffffffff1916827bffffffffffffffffffffffffffffffffffffffffffffffffffffffff191614806113ba57507f5b5e139f000000000000000000000000000000000000000000000000000000007bffffffffffffffffffffffffffffffffffffffffffffffffffffffff1916827bffffffffffffffffffffffffffffffffffffffffffffffffffffffff1916145b806113ca57506113c982611d2f565b5b9050919050565b60008073ffffffffffffffffffffffffffffffffffffffff166002600084815260200190815260200160002060009054906101000a900473ffffffffffffffffffffffffffffffffffffffff1673ffffffffffffffffffffffffffffffffffffffff1614159050919050565b600033905090565b816004600083815260200190815260200160002060006101000a81548173ffffffffffffffffffffffffffffffffffffffff021916908373ffffffffffffffffffffffffffffffffffffffff160217905550808273ffffffffffffffffffffffffffffffffffffffff166114b883610d90565b73ffffffffffffffffffffffffffffffffffffffff167f8c5be1e5ebec7d5bd14f71427d1e84f3dd0314c0f7b2291e5b200ac8c7c3b92560405160405180910390a45050565b611518828260405180602001604052806000815250611d99565b5050565b6000611527826113d1565b611566576040517f08c379a000000000000000000000000000000000000000000000000000000000815260040161155d90612f5a565b60405180910390fd5b600061157183610d90565b90508073ffffffffffffffffffffffffffffffffffffffff168473ffffffffffffffffffffffffffffffffffffffff1614806115e057508373ffffffffffffffffffffffffffffffffffffffff166115c884610731565b73ffffffffffffffffffffffffffffffffffffffff16145b806115f157506115f08185611163565b5b91505092915050565b8273ffffffffffffffffffffffffffffffffffffffff1661161a82610d90565b73ffffffffffffffffffffffffffffffffffffffff1614611670576040517f08c379a000000000000000000000000000000000000000000000000000000000815260040161166790612e9a565b60405180910390fd5b600073ffffffffffffffffffffffffffffffffffffffff168273ffffffffffffffffffffffffffffffffffffffff1614156116e0576040517f08c379a00000000000000000000000000000000000000000000000000000000081526004016116d790612f1a565b60405180910390fd5b6116eb838383611df4565b6116f6600082611445565b6001600360008573ffffffffffffffffffffffffffffffffffffffff1673ffffffffffffffffffffffffffffffffffffffff16815260200190815260200160002060008282546117469190613240565b925050819055506001600360008473ffffffffffffffffffffffffffffffffffffffff1673ffffffffffffffffffffffffffffffffffffffff168152602001908152602001600020600082825461179d91906131b9565b92505081905550816002600083815260200190815260200160002060006101000a81548173ffffffffffffffffffffffffffffffffffffffff021916908373ffffffffffffffffffffffffffffffffffffffff160217905550808273ffffffffffffffffffffffffffffffffffffffff168473ffffffffffffffffffffffffffffffffffffffff167fddf252ad1be2c89b69c2b068fc378daa952ba7f163c4a11628f55a4df523b3ef60405160405180910390a461185c838383611f08565b505050565b6000600a60009054906101000a900473ffffffffffffffffffffffffffffffffffffffff16905081600a60006101000a81548173ffffffffffffffffffffffffffffffffffffffff021916908373ffffffffffffffffffffffffffffffffffffffff1602179055508173ffffffffffffffffffffffffffffffffffffffff168173ffffffffffffffffffffffffffffffffffffffff167f8be0079c531659141344cd1fd0a4f28419497f9722a3daafe3b4186f6b6457e060405160405180910390a35050565b8173ffffffffffffffffffffffffffffffffffffffff168373ffffffffffffffffffffffffffffffffffffffff161415611996576040517f08c379a000000000000000000000000000000000000000000000000000000000815260040161198d90612f3a565b60405180910390fd5b80600560008573ffffffffffffffffffffffffffffffffffffffff1673ffffffffffffffffffffffffffffffffffffffff16815260200190815260200160002060008473ffffffffffffffffffffffffffffffffffffffff1673ffffffffffffffffffffffffffffffffffffffff16815260200190815260200160002060006101000a81548160ff0219169083151502179055508173ffffffffffffffffffffffffffffffffffffffff168373ffffffffffffffffffffffffffffffffffffffff167f17307eab39ab6107e8899845ad3d59bd9653f200f220920489ca2b5937696c3183604051611a879190612dfd565b60405180910390a3505050565b611a9f8484846115fa565b611aab84848484611f0d565b611aea576040517f08c379a0000000000000000000000000000000000000000000000000000000008152600401611ae190612e5a565b60405180910390fd5b50505050565b6060600b8054611aff9061332a565b80601f0160208091040260200160405190810160405280929190818152602001828054611b2b9061332a565b8015611b785780601f10611b4d57610100808354040283529160200191611b78565b820191906000526020600020905b815481529060010190602001808311611b5b57829003601f168201915b5050505050905090565b60606000821415611bca576040518060400160405280600181526020017f30000000000000000000000000000000000000000000000000000000000000008152509050611d2a565b600082905060005b60008214611bfc578080611be59061338d565b915050600a82611bf5919061320f565b9150611bd2565b60008167ffffffffffffffff811115611c3e577f4e487b7100000000000000000000000000000000000000000000000000000000600052604160045260246000fd5b6040519080825280601f01601f191660200182016040528015611c705781602001600182028036833780820191505090505b5090505b60008514611d2357600182611c899190613240565b9150600a85611c9891906133d6565b6030611ca491906131b9565b60f81b818381518110611ce0577f4e487b7100000000000000000000000000000000000000000000000000000000600052603260045260246000fd5b60200101907effffffffffffffffffffffffffffffffffffffffffffffffffffffffffffff1916908160001a905350600a85611d1c919061320f565b9450611c74565b8093505050505b919050565b60007f01ffc9a7000000000000000000000000000000000000000000000000000000007bffffffffffffffffffffffffffffffffffffffffffffffffffffffff1916827bffffffffffffffffffffffffffffffffffffffffffffffffffffffff1916149050919050565b611da383836120a4565b611db06000848484611f0d565b611def576040517f08c379a0000000000000000000000000000000000000000000000000000000008152600401611de690612e5a565b60405180910390fd5b505050565b611dff83838361227e565b600073ffffffffffffffffffffffffffffffffffffffff168373ffffffffffffffffffffffffffffffffffffffff161415611e4257611e3d81612283565b611e81565b8173ffffffffffffffffffffffffffffffffffffffff168373ffffffffffffffffffffffffffffffffffffffff1614611e8057611e7f83826122cc565b5b5b600073ffffffffffffffffffffffffffffffffffffffff168273ffffffffffffffffffffffffffffffffffffffff161415611ec457611ebf81612439565b611f03565b8273ffffffffffffffffffffffffffffffffffffffff168273ffffffffffffffffffffffffffffffffffffffff1614611f0257611f01828261257c565b5b5b505050565b505050565b6000611f2e8473ffffffffffffffffffffffffffffffffffffffff166125fb565b15612097578373ffffffffffffffffffffffffffffffffffffffff1663150b7a02611f5761143d565b8786866040518563ffffffff1660e01b8152600401611f799493929190612db1565b602060405180830381600087803b158015611f9357600080fd5b505af1925050508015611fc457506040513d601f19601f82011682018060405250810190611fc191906128e8565b60015b612047573d8060008114611ff4576040519150601f19603f3d011682016040523d82523d6000602084013e611ff9565b606091505b5060008151141561203f576040517f08c379a000000000000000000000000000000000000000000000000000000000815260040161203690612e5a565b60405180910390fd5b805181602001fd5b63150b7a0260e01b7bffffffffffffffffffffffffffffffffffffffffffffffffffffffff1916817bffffffffffffffffffffffffffffffffffffffffffffffffffffffff19161491505061209c565b600190505b949350505050565b600073ffffffffffffffffffffffffffffffffffffffff168273ffffffffffffffffffffffffffffffffffffffff161415612114576040517f08c379a000000000000000000000000000000000000000000000000000000000815260040161210b90612ffa565b60405180910390fd5b61211d816113d1565b1561215d576040517f08c379a000000000000000000000000000000000000000000000000000000000815260040161215490612eba565b60405180910390fd5b61216960008383611df4565b6001600360008473ffffffffffffffffffffffffffffffffffffffff1673ffffffffffffffffffffffffffffffffffffffff16815260200190815260200160002060008282546121b991906131b9565b92505081905550816002600083815260200190815260200160002060006101000a81548173ffffffffffffffffffffffffffffffffffffffff021916908373ffffffffffffffffffffffffffffffffffffffff160217905550808273ffffffffffffffffffffffffffffffffffffffff16600073ffffffffffffffffffffffffffffffffffffffff167fddf252ad1be2c89b69c2b068fc378daa952ba7f163c4a11628f55a4df523b3ef60405160405180910390a461227a60008383611f08565b5050565b505050565b6008805490506009600083815260200190815260200160002081905550600881908060018154018082558091505060019003906000526020600020016000909190919091505550565b600060016122d984610e42565b6122e39190613240565b90506000600760008481526020019081526020016000205490508181146123c8576000600660008673ffffffffffffffffffffffffffffffffffffffff1673ffffffffffffffffffffffffffffffffffffffff168152602001908152602001600020600084815260200190815260200160002054905080600660008773ffffffffffffffffffffffffffffffffffffffff1673ffffffffffffffffffffffffffffffffffffffff168152602001908152602001600020600084815260200190815260200160002081905550816007600083815260200190815260200160002081905550505b6007600084815260200190815260200160002060009055600660008573ffffffffffffffffffffffffffffffffffffffff1673ffffffffffffffffffffffffffffffffffffffff16815260200190815260200160002060008381526020019081526020016000206000905550505050565b6000600160088054905061244d9190613240565b90506000600960008481526020019081526020016000205490506000600883815481106124a3577f4e487b7100000000000000000000000000000000000000000000000000000000600052603260045260246000fd5b9060005260206000200154905080600883815481106124eb577f4e487b7100000000000000000000000000000000000000000000000000000000600052603260045260246000fd5b906000526020600020018190555081600960008381526020019081526020016000208190555060096000858152602001908152602001600020600090556008805480612560577f4e487b7100000000000000000000000000000000000000000000000000000000600052603160045260246000fd5b6001900381819060005260206000200160009055905550505050565b600061258783610e42565b905081600660008573ffffffffffffffffffffffffffffffffffffffff1673ffffffffffffffffffffffffffffffffffffffff168152602001908152602001600020600083815260200190815260200160002081905550806007600084815260200190815260200160002081905550505050565b6000808273ffffffffffffffffffffffffffffffffffffffff163b119050919050565b600061263161262c8461313a565b613115565b90508281526020810184848401111561264957600080fd5b6126548482856132e8565b509392505050565b60008135905061266b81613ae6565b92915050565b60008135905061268081613afd565b92915050565b60008135905061269581613b14565b92915050565b6000815190506126aa81613b14565b92915050565b600082601f8301126126c157600080fd5b81356126d184826020860161261e565b91505092915050565b6000813590506126e981613b2b565b92915050565b60006020828403121561270157600080fd5b600061270f8482850161265c565b91505092915050565b6000806040838503121561272b57600080fd5b60006127398582860161265c565b925050602061274a8582860161265c565b9150509250929050565b60008060006060848603121561276957600080fd5b60006127778682870161265c565b93505060206127888682870161265c565b9250506040612799868287016126da565b9150509250925092565b600080600080608085870312156127b957600080fd5b60006127c78782880161265c565b94505060206127d88782880161265c565b93505060406127e9878288016126da565b925050606085013567ffffffffffffffff81111561280657600080fd5b612812878288016126b0565b91505092959194509250565b6000806040838503121561283157600080fd5b600061283f8582860161265c565b925050602061285085828601612671565b9150509250929050565b6000806040838503121561286d57600080fd5b600061287b8582860161265c565b925050602061288c858286016126da565b9150509250929050565b6000602082840312156128a857600080fd5b60006128b684828501612671565b91505092915050565b6000602082840312156128d157600080fd5b60006128df84828501612686565b91505092915050565b6000602082840312156128fa57600080fd5b60006129088482850161269b565b91505092915050565b60006020828403121561292357600080fd5b6000612931848285016126da565b91505092915050565b61294381613274565b82525050565b61295281613286565b82525050565b60006129638261316b565b61296d8185613181565b935061297d8185602086016132f7565b612986816134c3565b840191505092915050565b600061299c82613176565b6129a6818561319d565b93506129b68185602086016132f7565b6129bf816134c3565b840191505092915050565b60006129d582613176565b6129df81856131ae565b93506129ef8185602086016132f7565b80840191505092915050565b6000612a08602b8361319d565b9150612a13826134d4565b604082019050919050565b6000612a2b60328361319d565b9150612a3682613523565b604082019050919050565b6000612a4e60268361319d565b9150612a5982613572565b604082019050919050565b6000612a7160258361319d565b9150612a7c826135c1565b604082019050919050565b6000612a94601c8361319d565b9150612a9f82613610565b602082019050919050565b6000612ab7601a8361319d565b9150612ac282613639565b602082019050919050565b6000612ada60148361319d565b9150612ae582613662565b602082019050919050565b6000612afd60248361319d565b9150612b088261368b565b604082019050919050565b6000612b2060198361319d565b9150612b2b826136da565b602082019050919050565b6000612b43602c8361319d565b9150612b4e82613703565b604082019050919050565b6000612b6660388361319d565b9150612b7182613752565b604082019050919050565b6000612b89602a8361319d565b9150612b94826137a1565b604082019050919050565b6000612bac60298361319d565b9150612bb7826137f0565b604082019050919050565b6000612bcf60298361319d565b9150612bda8261383f565b604082019050919050565b6000612bf260208361319d565b9150612bfd8261388e565b602082019050919050565b6000612c15602c8361319d565b9150612c20826138b7565b604082019050919050565b6000612c386005836131ae565b9150612c4382613906565b600582019050919050565b6000612c5b60208361319d565b9150612c668261392f565b602082019050919050565b6000612c7e60258361319d565b9150612c8982613958565b604082019050919050565b6000612ca160218361319d565b9150612cac826139a7565b604082019050919050565b6000612cc4602d8361319d565b9150612ccf826139f6565b604082019050919050565b6000612ce7600083613192565b9150612cf282613a45565b600082019050919050565b6000612d0a60318361319d565b9150612d1582613a48565b604082019050919050565b6000612d2d602c8361319d565b9150612d3882613a97565b604082019050919050565b612d4c816132de565b82525050565b6000612d5e82856129ca565b9150612d6a82846129ca565b9150612d7582612c2b565b91508190509392505050565b6000612d8c82612cda565b9150819050919050565b6000602082019050612dab600083018461293a565b92915050565b6000608082019050612dc6600083018761293a565b612dd3602083018661293a565b612de06040830185612d43565b8181036060830152612df28184612958565b905095945050505050565b6000602082019050612e126000830184612949565b92915050565b60006020820190508181036000830152612e328184612991565b905092915050565b60006020820190508181036000830152612e53816129fb565b9050919050565b60006020820190508181036000830152612e7381612a1e565b9050919050565b60006020820190508181036000830152612e9381612a41565b9050919050565b60006020820190508181036000830152612eb381612a64565b9050919050565b60006020820190508181036000830152612ed381612a87565b9050919050565b60006020820190508181036000830152612ef381612aaa565b9050919050565b60006020820190508181036000830152612f1381612acd565b9050919050565b60006020820190508181036000830152612f3381612af0565b9050919050565b60006020820190508181036000830152612f5381612b13565b9050919050565b60006020820190508181036000830152612f7381612b36565b9050919050565b60006020820190508181036000830152612f9381612b59565b9050919050565b60006020820190508181036000830152612fb381612b7c565b9050919050565b60006020820190508181036000830152612fd381612b9f565b9050919050565b60006020820190508181036000830152612ff381612bc2565b9050919050565b6000602082019050818103600083015261301381612be5565b9050919050565b6000602082019050818103600083015261303381612c08565b9050919050565b6000602082019050818103600083015261305381612c4e565b9050919050565b6000602082019050818103600083015261307381612c71565b9050919050565b6000602082019050818103600083015261309381612c94565b9050919050565b600060208201905081810360008301526130b381612cb7565b9050919050565b600060208201905081810360008301526130d381612cfd565b9050919050565b600060208201905081810360008301526130f381612d20565b9050919050565b600060208201905061310f6000830184612d43565b92915050565b600061311f613130565b905061312b828261335c565b919050565b6000604051905090565b600067ffffffffffffffff82111561315557613154613494565b5b61315e826134c3565b9050602081019050919050565b600081519050919050565b600081519050919050565b600082825260208201905092915050565b600081905092915050565b600082825260208201905092915050565b600081905092915050565b60006131c4826132de565b91506131cf836132de565b9250827fffffffffffffffffffffffffffffffffffffffffffffffffffffffffffffffff0382111561320457613203613407565b5b828201905092915050565b600061321a826132de565b9150613225836132de565b92508261323557613234613436565b5b828204905092915050565b600061324b826132de565b9150613256836132de565b92508282101561326957613268613407565b5b828203905092915050565b600061327f826132be565b9050919050565b60008115159050919050565b60007fffffffff0000000000000000000000000000000000000000000000000000000082169050919050565b600073ffffffffffffffffffffffffffffffffffffffff82169050919050565b6000819050919050565b82818337600083830152505050565b60005b838110156133155780820151818401526020810190506132fa565b83811115613324576000848401525b50505050565b6000600282049050600182168061334257607f821691505b6020821081141561335657613355613465565b5b50919050565b613365826134c3565b810181811067ffffffffffffffff8211171561338457613383613494565b5b80604052505050565b6000613398826132de565b91507fffffffffffffffffffffffffffffffffffffffffffffffffffffffffffffffff8214156133cb576133ca613407565b5b600182019050919050565b60006133e1826132de565b91506133ec836132de565b9250826133fc576133fb613436565b5b828206905092915050565b7f4e487b7100000000000000000000000000000000000000000000000000000000600052601160045260246000fd5b7f4e487b7100000000000000000000000000000000000000000000000000000000600052601260045260246000fd5b7f4e487b7100000000000000000000000000000000000000000000000000000000600052602260045260246000fd5b7f4e487b7100000000000000000000000000000000000000000000000000000000600052604160045260246000fd5b6000601f19601f8301169050919050565b7f455243373231456e756d657261626c653a206f776e657220696e646578206f7560008201527f74206f6620626f756e6473000000000000000000000000000000000000000000602082015250565b7f4552433732313a207472616e7366657220746f206e6f6e20455243373231526560008201527f63656976657220696d706c656d656e7465720000000000000000000000000000602082015250565b7f4f776e61626c653a206e6577206f776e657220697320746865207a65726f206160008201527f6464726573730000000000000000000000000000000000000000000000000000602082015250565b7f4552433732313a207472616e736665722066726f6d20696e636f72726563742060008201527f6f776e6572000000000000000000000000000000000000000000000000000000602082015250565b7f4552433732313a20746f6b656e20616c7265616479206d696e74656400000000600082015250565b7f436f6e74726163742063757272656e746c79205061757365642e000000000000600082015250565b7f4661696c656420746f2073656e64204574686572000000000000000000000000600082015250565b7f4552433732313a207472616e7366657220746f20746865207a65726f2061646460008201527f7265737300000000000000000000000000000000000000000000000000000000602082015250565b7f4552433732313a20617070726f766520746f2063616c6c657200000000000000600082015250565b7f4552433732313a206f70657261746f7220717565727920666f72206e6f6e657860008201527f697374656e7420746f6b656e0000000000000000000000000000000000000000602082015250565b7f4552433732313a20617070726f76652063616c6c6572206973206e6f74206f7760008201527f6e6572206e6f7220617070726f76656420666f7220616c6c0000000000000000602082015250565b7f4552433732313a2062616c616e636520717565727920666f7220746865207a6560008201527f726f206164647265737300000000000000000000000000000000000000000000602082015250565b7f4552433732313a206f776e657220717565727920666f72206e6f6e657869737460008201527f656e7420746f6b656e0000000000000000000000000000000000000000000000602082015250565b7f4d6178696d756d20737570706c79206f6620746f6b656e7320616c726561647960008201527f2065786365656465640000000000000000000000000000000000000000000000602082015250565b7f4552433732313a206d696e7420746f20746865207a65726f2061646472657373600082015250565b7f4552433732313a20617070726f76656420717565727920666f72206e6f6e657860008201527f697374656e7420746f6b656e0000000000000000000000000000000000000000602082015250565b7f2e6a736f6e000000000000000000000000000000000000000000000000000000600082015250565b7f4f776e61626c653a2063616c6c6572206973206e6f7420746865206f776e6572600082015250565b7f45746865722073656e74206973206e6f74206173206d7563682061732072657160008201527f7569726564000000000000000000000000000000000000000000000000000000602082015250565b7f4552433732313a20617070726f76616c20746f2063757272656e74206f776e6560008201527f7200000000000000000000000000000000000000000000000000000000000000602082015250565b7f4552433732314d65746164613a2055524920717565727920666f72206e6f6e6560008201527f78697374656e7420746f6b656e00000000000000000000000000000000000000602082015250565b50565b7f4552433732313a207472616e736665722063616c6c6572206973206e6f74206f60008201527f776e6572206e6f7220617070726f766564000000000000000000000000000000602082015250565b7f455243373231456e756d657261626c653a20676c6f62616c20696e646578206f60008201527f7574206f6620626f756e64730000000000000000000000000000000000000000602082015250565b613aef81613274565b8114613afa57600080fd5b50565b613b0681613286565b8114613b1157600080fd5b50565b613b1d81613292565b8114613b2857600080fd5b50565b613b34816132de565b8114613b3f57600080fd5b5056fea2646970667358221220eb3fff15fa3cd70428ed5da9288c4b23e8c052f7eac47e7760f679bf4ef878de64736f6c63430008040033",
  "linkReferences": {},
  "deployedLinkReferences": {}
}