{
  "_format": "hh-sol-artifact-1",
  "contractName": "CryptoDevToken",
  "sourceName": "contracts/CryptoDevToken.sol",
  "abi": [
    {
      "inputs": [
        {
          "internalType": "address",
          "name": "_cryptoDevsContract",
          "type": "address"
        }
      ],
      "stateMutability": "nonpayable",
      "type": "constructor"
    },
    {
      "anonymous": false,
      "inputs": [
        {
          "indexed": true,
          "internalType": "address",
          "name": "owner",
          "type": "address"
        },
        {
          "indexed": true,
          "internalType": "address",
          "name": "spender",
          "type": "address"
        },
        {
          "indexed": false,
          "internalType": "uint256",
          "name": "value",
          "type": "uint256"
        }
      ],
      "name": "Approval",
      "type": "event"
    },
    {
      "anonymous": false,
      "inputs": [
        {
          "indexed": true,
          "internalType": "address",
          "name": "previousOwner",
          "type": "address"
        },
        {
          "indexed": true,
          "internalType": "address",
          "name": "newOwner",
          "type": "address"
        }
      ],
      "name": "OwnershipTransferred",
      "type": "event"
    },
    {
      "anonymous": false,
      "inputs": [
        {
          "indexed": true,
          "internalType": "address",
          "name": "from",
          "type": "address"
        },
        {
          "indexed": true,
          "internalType": "address",
          "name": "to",
          "type": "address"
        },
        {
          "indexed": false,
          "internalType": "uint256",
          "name": "value",
          "type": "uint256"
        }
      ],
      "name": "Transfer",
      "type": "event"
    },
    {
      "stateMutability": "payable",
      "type": "fallback"
    },
    {
      "inputs": [
        {
          "internalType": "address",
          "name": "owner",
          "type": "address"
        },
        {
          "internalType": "address",
          "name": "spender",
          "type": "address"
        }
      ],
      "name": "allowance",
      "outputs": [
        {
          "internalType": "uint256",
          "name": "",
          "type": "uint256"
        }
      ],
      "stateMutability": "view",
      "type": "function"
    },
    {
      "inputs": [
        {
          "internalType": "address",
          "name": "spender",
          "type": "address"
        },
        {
          "internalType": "uint256",
          "name": "amount",
          "type": "uint256"
        }
      ],
      "name": "approve",
      "outputs": [
        {
          "internalType": "bool",
          "name": "",
          "type": "bool"
        }
      ],
      "stateMutability": "nonpayable",
      "type": "function"
    },
    {
      "inputs": [
        {
          "internalType": "address",
          "name": "account",
          "type": "address"
        }
      ],
      "name": "balanceOf",
      "outputs": [
        {
          "internalType": "uint256",
          "name": "",
          "type": "uint256"
        }
      ],
      "stateMutability": "view",
      "type": "function"
    },
    {
      "inputs": [],
      "name": "claim",
      "outputs": [],
      "stateMutability": "nonpayable",
      "type": "function"
    },
    {
      "inputs": [],
      "name": "decimals",
      "outputs": [
        {
          "internalType": "uint8",
          "name": "",
          "type": "uint8"
        }
      ],
      "stateMutability": "view",
      "type": "function"
    },
    {
      "inputs": [
        {
          "internalType": "address",
          "name": "spender",
          "type": "address"
        },
        {
          "internalType": "uint256",
          "name": "subtractedValue",
          "type": "uint256"
        }
      ],
      "name": "decreaseAllowance",
      "outputs": [
        {
          "internalType": "bool",
          "name": "",
          "type": "bool"
        }
      ],
      "stateMutability": "nonpayable",
      "type": "function"
    },
    {
      "inputs": [
        {
          "internalType": "address",
          "name": "spender",
          "type": "address"
        },
        {
          "internalType": "uint256",
          "name": "addedValue",
          "type": "uint256"
        }
      ],
      "name": "increaseAllowance",
      "outputs": [
        {
          "internalType": "bool",
          "name": "",
          "type": "bool"
        }
      ],
      "stateMutability": "nonpayable",
      "type": "function"
    },
    {
      "inputs": [],
      "name": "maxTotalSupply",
      "outputs": [
        {
          "internalType": "uint256",
          "name": "",
          "type": "uint256"
        }
      ],
      "stateMutability": "view",
      "type": "function"
    },
    {
      "inputs": [
        {
          "internalType": "uint256",
          "name": "amount",
          "type": "uint256"
        }
      ],
      "name": "mint",
      "outputs": [],
      "stateMutability": "payable",
      "type": "function"
    },
    {
      "inputs": [],
      "name": "name",
      "outputs": [
        {
          "internalType": "string",
          "name": "",
          "type": "string"
        }
      ],
      "stateMutability": "view",
      "type": "function"
    },
    {
      "inputs": [],
      "name": "owner",
      "outputs": [
        {
          "internalType": "address",
          "name": "",
          "type": "address"
        }
      ],
      "stateMutability": "view",
      "type": "function"
    },
    {
      "inputs": [],
      "name": "renounceOwnership",
      "outputs": [],
      "stateMutability": "nonpayable",
      "type": "function"
    },
    {
      "inputs": [],
      "name": "symbol",
      "outputs": [
        {
          "internalType": "string",
          "name": "",
          "type": "string"
        }
      ],
      "stateMutability": "view",
      "type": "function"
    },
    {
      "inputs": [
        {
          "internalType": "uint256",
          "name": "",
          "type": "uint256"
        }
      ],
      "name": "tokenIdsClaimed",
      "outputs": [
        {
          "internalType": "bool",
          "name": "",
          "type": "bool"
        }
      ],
      "stateMutability": "view",
      "type": "function"
    },
    {
      "inputs": [],
      "name": "tokenPrice",
      "outputs": [
        {
          "internalType": "uint256",
          "name": "",
          "type": "uint256"
        }
      ],
      "stateMutability": "view",
      "type": "function"
    },
    {
      "inputs": [],
      "name": "tokensPerNFT",
      "outputs": [
        {
          "internalType": "uint256",
          "name": "",
          "type": "uint256"
        }
      ],
      "stateMutability": "view",
      "type": "function"
    },
    {
      "inputs": [],
      "name": "totalSupply",
      "outputs": [
        {
          "internalType": "uint256",
          "name": "",
          "type": "uint256"
        }
      ],
      "stateMutability": "view",
      "type": "function"
    },
    {
      "inputs": [
        {
          "internalType": "address",
          "name": "to",
          "type": "address"
        },
        {
          "internalType": "uint256",
          "name": "amount",
          "type": "uint256"
        }
      ],
      "name": "transfer",
      "outputs": [
        {
          "internalType": "bool",
          "name": "",
          "type": "bool"
        }
      ],
      "stateMutability": "nonpayable",
      "type": "function"
    },
    {
      "inputs": [
        {
          "internalType": "address",
          "name": "from",
          "type": "address"
        },
        {
          "internalType": "address",
          "name": "to",
          "type": "address"
        },
        {
          "internalType": "uint256",
          "name": "amount",
          "type": "uint256"
        }
      ],
      "name": "transferFrom",
      "outputs": [
        {
          "internalType": "bool",
          "name": "",
          "type": "bool"
        }
      ],
      "stateMutability": "nonpayable",
      "type": "function"
    },
    {
      "inputs": [
        {
          "internalType": "address",
          "name": "newOwner",
          "type": "address"
        }
      ],
      "name": "transferOwnership",
      "outputs": [],
      "stateMutability": "nonpayable",
      "type": "function"
    },
    {
      "stateMutability": "payable",
      "type": "receive"
    }
  ],
  "bytecode": "0x60806040523480156200001157600080fd5b50604051620025a2380380620025a28339818101604052810190620000379190620002d4565b6040518060400160405280601081526020017f43727970746f2044657620546f6b656e000000000000000000000000000000008152506040518060400160405280600381526020017f43445400000000000000000000000000000000000000000000000000000000008152508160039080519060200190620000bb9291906200020d565b508060049080519060200190620000d49291906200020d565b505050620000f7620000eb6200013f60201b60201c565b6200014760201b60201c565b80600660006101000a81548173ffffffffffffffffffffffffffffffffffffffff021916908373ffffffffffffffffffffffffffffffffffffffff16021790555050620003b3565b600033905090565b6000600560009054906101000a900473ffffffffffffffffffffffffffffffffffffffff16905081600560006101000a81548173ffffffffffffffffffffffffffffffffffffffff021916908373ffffffffffffffffffffffffffffffffffffffff1602179055508173ffffffffffffffffffffffffffffffffffffffff168173ffffffffffffffffffffffffffffffffffffffff167f8be0079c531659141344cd1fd0a4f28419497f9722a3daafe3b4186f6b6457e060405160405180910390a35050565b8280546200021b9062000334565b90600052602060002090601f0160209004810192826200023f57600085556200028b565b82601f106200025a57805160ff19168380011785556200028b565b828001600101855582156200028b579182015b828111156200028a5782518255916020019190600101906200026d565b5b5090506200029a91906200029e565b5090565b5b80821115620002b95760008160009055506001016200029f565b5090565b600081519050620002ce8162000399565b92915050565b600060208284031215620002e757600080fd5b6000620002f784828501620002bd565b91505092915050565b60006200030d8262000314565b9050919050565b600073ffffffffffffffffffffffffffffffffffffffff82169050919050565b600060028204905060018216806200034d57607f821691505b602082108114156200036457620003636200036a565b5b50919050565b7f4e487b7100000000000000000000000000000000000000000000000000000000600052602260045260246000fd5b620003a48162000300565b8114620003b057600080fd5b50565b6121df80620003c36000396000f3fe6080604052600436106101235760003560e01c806370a08231116100a0578063a0712d6811610064578063a0712d68146103e3578063a457c2d7146103ff578063a9059cbb1461043c578063dd62ed3e14610479578063f2fde38b146104b65761012a565b806370a082311461030e578063715018a61461034b5780637ff9b596146103625780638da5cb5b1461038d57806395d89b41146103b85761012a565b8063313ce567116100e7578063313ce5671461022757806339509351146102525780634e71d92d1461028f5780635afcc2f5146102a65780635f3690af146102d15761012a565b806306fdde031461012c578063095ea7b31461015757806318160ddd1461019457806323b872dd146101bf5780632ab4d052146101fc5761012a565b3661012a57005b005b34801561013857600080fd5b506101416104df565b60405161014e9190611991565b60405180910390f35b34801561016357600080fd5b5061017e60048036038101906101799190611645565b610571565b60405161018b9190611976565b60405180910390f35b3480156101a057600080fd5b506101a9610594565b6040516101b69190611b73565b60405180910390f35b3480156101cb57600080fd5b506101e660048036038101906101e191906115f6565b61059e565b6040516101f39190611976565b60405180910390f35b34801561020857600080fd5b506102116105cd565b60405161021e9190611b73565b60405180910390f35b34801561023357600080fd5b5061023c6105da565b6040516102499190611b8e565b60405180910390f35b34801561025e57600080fd5b5061027960048036038101906102749190611645565b6105e3565b6040516102869190611976565b60405180910390f35b34801561029b57600080fd5b506102a461068d565b005b3480156102b257600080fd5b506102bb610918565b6040516102c89190611b73565b60405180910390f35b3480156102dd57600080fd5b506102f860048036038101906102f39190611681565b610920565b6040516103059190611976565b60405180910390f35b34801561031a57600080fd5b5061033560048036038101906103309190611591565b610940565b6040516103429190611b73565b60405180910390f35b34801561035757600080fd5b50610360610988565b005b34801561036e57600080fd5b50610377610a10565b6040516103849190611b73565b60405180910390f35b34801561039957600080fd5b506103a2610a1b565b6040516103af9190611932565b60405180910390f35b3480156103c457600080fd5b506103cd610a45565b6040516103da9190611991565b60405180910390f35b6103fd60048036038101906103f89190611681565b610ad7565b005b34801561040b57600080fd5b5061042660048036038101906104219190611645565b610bb6565b6040516104339190611976565b60405180910390f35b34801561044857600080fd5b50610463600480360381019061045e9190611645565b610ca0565b6040516104709190611976565b60405180910390f35b34801561048557600080fd5b506104a0600480360381019061049b91906115ba565b610cc3565b6040516104ad9190611b73565b60405180910390f35b3480156104c257600080fd5b506104dd60048036038101906104d89190611591565b610d4a565b005b6060600380546104ee90611cfd565b80601f016020809104026020016040519081016040528092919081815260200182805461051a90611cfd565b80156105675780601f1061053c57610100808354040283529160200191610567565b820191906000526020600020905b81548152906001019060200180831161054a57829003601f168201915b5050505050905090565b60008061057c610e42565b9050610589818585610e4a565b600191505092915050565b6000600254905090565b6000806105a9610e42565b90506105b6858285611015565b6105c18585856110a1565b60019150509392505050565b683635c9adc5dea0000081565b60006012905090565b6000806105ee610e42565b9050610682818585600160008673ffffffffffffffffffffffffffffffffffffffff1673ffffffffffffffffffffffffffffffffffffffff16815260200190815260200160002060008973ffffffffffffffffffffffffffffffffffffffff1673ffffffffffffffffffffffffffffffffffffffff1681526020019081526020016000205461067d9190611bc5565b610e4a565b600191505092915050565b60003390506000600660009054906101000a900473ffffffffffffffffffffffffffffffffffffffff1673ffffffffffffffffffffffffffffffffffffffff166370a08231836040518263ffffffff1660e01b81526004016106ef9190611932565b60206040518083038186803b15801561070757600080fd5b505afa15801561071b573d6000803e3d6000fd5b505050506040513d601f19601f8201168201806040525081019061073f91906116aa565b905060008111610784576040517f08c379a000000000000000000000000000000000000000000000000000000000815260040161077b90611ab3565b60405180910390fd5b6000805b828110156108b6576000600660009054906101000a900473ffffffffffffffffffffffffffffffffffffffff1673ffffffffffffffffffffffffffffffffffffffff16632f745c5986846040518363ffffffff1660e01b81526004016107ef92919061194d565b60206040518083038186803b15801561080757600080fd5b505afa15801561081b573d6000803e3d6000fd5b505050506040513d601f19601f8201168201806040525081019061083f91906116aa565b90506007600082815260200190815260200160002060009054906101000a900460ff166108a2576001836108739190611bc5565b925060016007600083815260200190815260200160002060006101000a81548160ff0219169083151502179055505b5080806108ae90611d2f565b915050610788565b50600081116108fa576040517f08c379a00000000000000000000000000000000000000000000000000000000081526004016108f190611a73565b60405180910390fd5b61091333633b9aca008361090e9190611c1b565b611322565b505050565b633b9aca0081565b60076020528060005260406000206000915054906101000a900460ff1681565b60008060008373ffffffffffffffffffffffffffffffffffffffff1673ffffffffffffffffffffffffffffffffffffffff168152602001908152602001600020549050919050565b610990610e42565b73ffffffffffffffffffffffffffffffffffffffff166109ae610a1b565b73ffffffffffffffffffffffffffffffffffffffff1614610a04576040517f08c379a00000000000000000000000000000000000000000000000000000000081526004016109fb90611ad3565b60405180910390fd5b610a0e6000611482565b565b66038d7ea4c6800081565b6000600560009054906101000a900473ffffffffffffffffffffffffffffffffffffffff16905090565b606060048054610a5490611cfd565b80601f0160208091040260200160405190810160405280929190818152602001828054610a8090611cfd565b8015610acd5780601f10610aa257610100808354040283529160200191610acd565b820191906000526020600020905b815481529060010190602001808311610ab057829003601f168201915b5050505050905090565b60008166038d7ea4c68000610aec9190611c1b565b905080341015610b31576040517f08c379a0000000000000000000000000000000000000000000000000000000008152600401610b2890611a33565b60405180910390fd5b6000670de0b6b3a764000083610b479190611c1b565b9050683635c9adc5dea0000081610b5c610594565b610b669190611bc5565b1115610ba7576040517f08c379a0000000000000000000000000000000000000000000000000000000008152600401610b9e906119d3565b60405180910390fd5b610bb13382611322565b505050565b600080610bc1610e42565b90506000600160008373ffffffffffffffffffffffffffffffffffffffff1673ffffffffffffffffffffffffffffffffffffffff16815260200190815260200160002060008673ffffffffffffffffffffffffffffffffffffffff1673ffffffffffffffffffffffffffffffffffffffff16815260200190815260200160002054905083811015610c87576040517f08c379a0000000000000000000000000000000000000000000000000000000008152600401610c7e90611b33565b60405180910390fd5b610c948286868403610e4a565b60019250505092915050565b600080610cab610e42565b9050610cb88185856110a1565b600191505092915050565b6000600160008473ffffffffffffffffffffffffffffffffffffffff1673ffffffffffffffffffffffffffffffffffffffff16815260200190815260200160002060008373ffffffffffffffffffffffffffffffffffffffff1673ffffffffffffffffffffffffffffffffffffffff16815260200190815260200160002054905092915050565b610d52610e42565b73ffffffffffffffffffffffffffffffffffffffff16610d70610a1b565b73ffffffffffffffffffffffffffffffffffffffff1614610dc6576040517f08c379a0000000000000000000000000000000000000000000000000000000008152600401610dbd90611ad3565b60405180910390fd5b600073ffffffffffffffffffffffffffffffffffffffff168173ffffffffffffffffffffffffffffffffffffffff161415610e36576040517f08c379a0000000000000000000000000000000000000000000000000000000008152600401610e2d906119f3565b60405180910390fd5b610e3f81611482565b50565b600033905090565b600073ffffffffffffffffffffffffffffffffffffffff168373ffffffffffffffffffffffffffffffffffffffff161415610eba576040517f08c379a0000000000000000000000000000000000000000000000000000000008152600401610eb190611b13565b60405180910390fd5b600073ffffffffffffffffffffffffffffffffffffffff168273ffffffffffffffffffffffffffffffffffffffff161415610f2a576040517f08c379a0000000000000000000000000000000000000000000000000000000008152600401610f2190611a13565b60405180910390fd5b80600160008573ffffffffffffffffffffffffffffffffffffffff1673ffffffffffffffffffffffffffffffffffffffff16815260200190815260200160002060008473ffffffffffffffffffffffffffffffffffffffff1673ffffffffffffffffffffffffffffffffffffffff168152602001908152602001600020819055508173ffffffffffffffffffffffffffffffffffffffff168373ffffffffffffffffffffffffffffffffffffffff167f8c5be1e5ebec7d5bd14f71427d1e84f3dd0314c0f7b2291e5b200ac8c7c3b925836040516110089190611b73565b60405180910390a3505050565b60006110218484610cc3565b90507fffffffffffffffffffffffffffffffffffffffffffffffffffffffffffffffff811461109b578181101561108d576040517f08c379a000000000000000000000000000000000000000000000000000000000815260040161108490611a53565b60405180910390fd5b61109a8484848403610e4a565b5b50505050565b600073ffffffffffffffffffffffffffffffffffffffff168373ffffffffffffffffffffffffffffffffffffffff161415611111576040517f08c379a000000000000000000000000000000000000000000000000000000000815260040161110890611af3565b60405180910390fd5b600073ffffffffffffffffffffffffffffffffffffffff168273ffffffffffffffffffffffffffffffffffffffff161415611181576040517f08c379a0000000000000000000000000000000000000000000000000000000008152600401611178906119b3565b60405180910390fd5b61118c838383611548565b60008060008573ffffffffffffffffffffffffffffffffffffffff1673ffffffffffffffffffffffffffffffffffffffff16815260200190815260200160002054905081811015611212576040517f08c379a000000000000000000000000000000000000000000000000000000000815260040161120990611a93565b60405180910390fd5b8181036000808673ffffffffffffffffffffffffffffffffffffffff1673ffffffffffffffffffffffffffffffffffffffff16815260200190815260200160002081905550816000808573ffffffffffffffffffffffffffffffffffffffff1673ffffffffffffffffffffffffffffffffffffffff16815260200190815260200160002060008282546112a59190611bc5565b925050819055508273ffffffffffffffffffffffffffffffffffffffff168473ffffffffffffffffffffffffffffffffffffffff167fddf252ad1be2c89b69c2b068fc378daa952ba7f163c4a11628f55a4df523b3ef846040516113099190611b73565b60405180910390a361131c84848461154d565b50505050565b600073ffffffffffffffffffffffffffffffffffffffff168273ffffffffffffffffffffffffffffffffffffffff161415611392576040517f08c379a000000000000000000000000000000000000000000000000000000000815260040161138990611b53565b60405180910390fd5b61139e60008383611548565b80600260008282546113b09190611bc5565b92505081905550806000808473ffffffffffffffffffffffffffffffffffffffff1673ffffffffffffffffffffffffffffffffffffffff16815260200190815260200160002060008282546114059190611bc5565b925050819055508173ffffffffffffffffffffffffffffffffffffffff16600073ffffffffffffffffffffffffffffffffffffffff167fddf252ad1be2c89b69c2b068fc378daa952ba7f163c4a11628f55a4df523b3ef8360405161146a9190611b73565b60405180910390a361147e6000838361154d565b5050565b6000600560009054906101000a900473ffffffffffffffffffffffffffffffffffffffff16905081600560006101000a81548173ffffffffffffffffffffffffffffffffffffffff021916908373ffffffffffffffffffffffffffffffffffffffff1602179055508173ffffffffffffffffffffffffffffffffffffffff168173ffffffffffffffffffffffffffffffffffffffff167f8be0079c531659141344cd1fd0a4f28419497f9722a3daafe3b4186f6b6457e060405160405180910390a35050565b505050565b505050565b6000813590506115618161217b565b92915050565b60008135905061157681612192565b92915050565b60008151905061158b81612192565b92915050565b6000602082840312156115a357600080fd5b60006115b184828501611552565b91505092915050565b600080604083850312156115cd57600080fd5b60006115db85828601611552565b92505060206115ec85828601611552565b9150509250929050565b60008060006060848603121561160b57600080fd5b600061161986828701611552565b935050602061162a86828701611552565b925050604061163b86828701611567565b9150509250925092565b6000806040838503121561165857600080fd5b600061166685828601611552565b925050602061167785828601611567565b9150509250929050565b60006020828403121561169357600080fd5b60006116a184828501611567565b91505092915050565b6000602082840312156116bc57600080fd5b60006116ca8482850161157c565b91505092915050565b6116dc81611c75565b82525050565b6116eb81611c87565b82525050565b60006116fc82611ba9565b6117068185611bb4565b9350611716818560208601611cca565b61171f81611dd6565b840191505092915050565b6000611737602383611bb4565b915061174282611de7565b604082019050919050565b600061175a601d83611bb4565b915061176582611e36565b602082019050919050565b600061177d602683611bb4565b915061178882611e5f565b604082019050919050565b60006117a0602283611bb4565b91506117ab82611eae565b604082019050919050565b60006117c3601883611bb4565b91506117ce82611efd565b602082019050919050565b60006117e6601d83611bb4565b91506117f182611f26565b602082019050919050565b6000611809602783611bb4565b915061181482611f4f565b604082019050919050565b600061182c602683611bb4565b915061183782611f9e565b604082019050919050565b600061184f602283611bb4565b915061185a82611fed565b604082019050919050565b6000611872602083611bb4565b915061187d8261203c565b602082019050919050565b6000611895602583611bb4565b91506118a082612065565b604082019050919050565b60006118b8602483611bb4565b91506118c3826120b4565b604082019050919050565b60006118db602583611bb4565b91506118e682612103565b604082019050919050565b60006118fe601f83611bb4565b915061190982612152565b602082019050919050565b61191d81611cb3565b82525050565b61192c81611cbd565b82525050565b600060208201905061194760008301846116d3565b92915050565b600060408201905061196260008301856116d3565b61196f6020830184611914565b9392505050565b600060208201905061198b60008301846116e2565b92915050565b600060208201905081810360008301526119ab81846116f1565b905092915050565b600060208201905081810360008301526119cc8161172a565b9050919050565b600060208201905081810360008301526119ec8161174d565b9050919050565b60006020820190508181036000830152611a0c81611770565b9050919050565b60006020820190508181036000830152611a2c81611793565b9050919050565b60006020820190508181036000830152611a4c816117b6565b9050919050565b60006020820190508181036000830152611a6c816117d9565b9050919050565b60006020820190508181036000830152611a8c816117fc565b9050919050565b60006020820190508181036000830152611aac8161181f565b9050919050565b60006020820190508181036000830152611acc81611842565b9050919050565b60006020820190508181036000830152611aec81611865565b9050919050565b60006020820190508181036000830152611b0c81611888565b9050919050565b60006020820190508181036000830152611b2c816118ab565b9050919050565b60006020820190508181036000830152611b4c816118ce565b9050919050565b60006020820190508181036000830152611b6c816118f1565b9050919050565b6000602082019050611b886000830184611914565b92915050565b6000602082019050611ba36000830184611923565b92915050565b600081519050919050565b600082825260208201905092915050565b6000611bd082611cb3565b9150611bdb83611cb3565b9250827fffffffffffffffffffffffffffffffffffffffffffffffffffffffffffffffff03821115611c1057611c0f611d78565b5b828201905092915050565b6000611c2682611cb3565b9150611c3183611cb3565b9250817fffffffffffffffffffffffffffffffffffffffffffffffffffffffffffffffff0483118215151615611c6a57611c69611d78565b5b828202905092915050565b6000611c8082611c93565b9050919050565b60008115159050919050565b600073ffffffffffffffffffffffffffffffffffffffff82169050919050565b6000819050919050565b600060ff82169050919050565b60005b83811015611ce8578082015181840152602081019050611ccd565b83811115611cf7576000848401525b50505050565b60006002820490506001821680611d1557607f821691505b60208210811415611d2957611d28611da7565b5b50919050565b6000611d3a82611cb3565b91507fffffffffffffffffffffffffffffffffffffffffffffffffffffffffffffffff821415611d6d57611d6c611d78565b5b600182019050919050565b7f4e487b7100000000000000000000000000000000000000000000000000000000600052601160045260246000fd5b7f4e487b7100000000000000000000000000000000000000000000000000000000600052602260045260246000fd5b6000601f19601f8301169050919050565b7f45524332303a207472616e7366657220746f20746865207a65726f206164647260008201527f6573730000000000000000000000000000000000000000000000000000000000602082015250565b7f4578636565647320746865206d617820746f74616c20737570706c792e000000600082015250565b7f4f776e61626c653a206e6577206f776e657220697320746865207a65726f206160008201527f6464726573730000000000000000000000000000000000000000000000000000602082015250565b7f45524332303a20617070726f766520746f20746865207a65726f20616464726560008201527f7373000000000000000000000000000000000000000000000000000000000000602082015250565b7f45746865722073656e74206973206e6f7420656e6f7567680000000000000000600082015250565b7f45524332303a20696e73756666696369656e7420616c6c6f77616e6365000000600082015250565b7f596f75206861766520616c726561647920636c61696d656420616c6c2074686560008201527f20746f6b656e7300000000000000000000000000000000000000000000000000602082015250565b7f45524332303a207472616e7366657220616d6f756e742065786365656473206260008201527f616c616e63650000000000000000000000000000000000000000000000000000602082015250565b7f596f75206469646e277420686f6c6420616e792043727970746f20446576204e60008201527f4654000000000000000000000000000000000000000000000000000000000000602082015250565b7f4f776e61626c653a2063616c6c6572206973206e6f7420746865206f776e6572600082015250565b7f45524332303a207472616e736665722066726f6d20746865207a65726f20616460008201527f6472657373000000000000000000000000000000000000000000000000000000602082015250565b7f45524332303a20617070726f76652066726f6d20746865207a65726f2061646460008201527f7265737300000000000000000000000000000000000000000000000000000000602082015250565b7f45524332303a2064656372656173656420616c6c6f77616e63652062656c6f7760008201527f207a65726f000000000000000000000000000000000000000000000000000000602082015250565b7f45524332303a206d696e7420746f20746865207a65726f206164647265737300600082015250565b61218481611c75565b811461218f57600080fd5b50565b61219b81611cb3565b81146121a657600080fd5b5056fea2646970667358221220df36734da68c3fe52ee05d6e743b3208ff4cf95b83b4d8901075b38761d56fa864736f6c63430008040033",
  "linkReferences": {},
  "deployedLinkReferences": {}
}